:100000000C94E2060C9429070C9429070C942907F8
:100010000C9429070C9429070C9429070C942907A0
:100020000C9429070C9429070C94E7270C94BA2800
:100030000C94BE1E0C9429070C9429070C942907D4
:100040000C9429070C9429070C9429070C94290770
:100050000C9429070C94261F0C9429070C9429074B
:100060000C9429070C9429070C9429070C94290750
:100070000C9429070C9429070C9429070C94290740
:100080000C9429070C9429070C9429070C94290730
:100090000C9429070C9429070C9429070C94290720
:1000A0000C9429070C9429070C94290729001E0099
:1000B0001F0020002100220023002400250026002C
:1000C00027002D002E0035002A002B0014001A00F6
:1000D0000800150017001C0018000C001200130087
:1000E0002F00300028004B003900040016000700E4
:1000F00009000A000B000D000E000F003300340051
:10010000310000004E00E10064001D001B000600ED
:100110001900050011001000360037003800E50016
:1001200052000151E000E300E20000000000000086
:100130002C000000E6006500E400500051004F0074
:100140004C0000703A003B003C003D003E003F0088
:10015000400041004200430044004500010001000E
:1001600034700100520001003570010001000100EF
:100170000100010001000100010001004A0032708D
:10018000500051004F00010001000100367038702E
:100190003A7001000100010000004D000100010063
:1001A0000100307032703170010001003770397019
:1001B0003B7001000100010001000100010001008D
:1001C000000000000000010000000100010001002B
:1001D00001000100010046000100010001000100D2
:1001E0000100010001000100010001000100010007
:1001F00001000100010001000100010001000100F7
:1002000001000100010001000100010001000100E6
:1002100001000100010001000100010001000100D6
:1002200001000100010001000100010001000000C7
:1002300001000100010001000100010001000100B6
:1002400001000100010001000100010001000100A6
:10025000010001000100000000000000010000009A
:100260000100010001000100010001000100010086
:100270000100010001000100010001000100010076
:100280000100010001000100010001000100010066
:100290000100010001000100010001000100010056
:1002A0000100010001000100010001000100010046
:1002B0000100010001000100010001000100010036
:1002C0000100010000000100010001000100010027
:1002D0000100010001000100010001000100010016
:1002E0000100010001000100010001000000000008
:1002F00000000100000001000100010001000100F8
:1003000001000100010001000100010001000100E5
:1003100001000100010001000100010001000100D5
:1003200001000100010001000100010001000100C5
:1003300001000100010001000100010001000100B5
:1003400001000100010001000100010001000100A5
:100350000100010001000100010000000100010096
:100360000100010001000100010001000100010085
:100370000100010001000100010001000100010075
:100380000100000000000000010000000100010069
:100390000100010001000100010001000100010055
:1003A0000100010001000100010001000100010045
:1003B0000100010001000100010001000100010035
:1003C0000100010001000100010001000100010025
:1003D0000100010001000100010001000100010015
:1003E0000100010001000100010001000100010005
:1003F00000000100010001000100010001000100F6
:1004000001000100010001000100010001000100E4
:1004100001000100010001000000000000000100D7
:1004200000000100010001000100010001000100C5
:1004300001000100010001000100010001000100B4
:1004400001000100010001000100010001000100A4
:100450000100010001000100010001000100010094
:100460000100010001000100010001000100010084
:100470000100010001000100010001000100010074
:100480000100010001000000010001000100010065
:100490000100010001000100010001000100010054
:1004A0000100010001000100010001000100000045
:1004B0000000000001000000010001000100010037
:1004C0000100010001000100010001000100010024
:1004D0000100010001000100010001000100010014
:1004E0000100010001000100010001000100010004
:1004F00001000100010001000100010001000100F4
:1005000001000100010001000100010001000100E3
:1005100001000100010001000100010000000100D4
:1005200001000100010001000100010001000100C3
:1005300001000100010001000100010001000100B3
:1005400001000100000000000000010000000100A7
:100550000100010001000100010001000100010093
:100560000100010001000100010001000100010083
:100570000100010001000100010001000100010073
:100580000100010001000100010001000100010063
:100590000100010001000100010001000100010053
:1005A0000100010001000100010001000100010043
:1005B0000100000001000100010001000100010034
:1005C0000100010001000100010001000100010023
:1005D0000100010001000100010000000000000016
:1005E0000100000001000100010001000100010004
:1005F00001000100010001000100010001000100F3
:1006000001000100010001000100010001000100E2
:1006100001000100010001000100010001000100D2
:1006200001000100010001000100010001000100C2
:1006300001000100010001000100010001000100B2
:1006400001000100010001000000010001000100A3
:100650000100010001000100010001000100010092
:100660000100010001000100010001000100010082
:100670000000000000000100000001000100010076
:100680000100010001000100010001000100010062
:100690000100010001000100010001000100010052
:1006A0000100010001000100010001000100010042
:1006B0000100010001000100010001000100010032
:1006C0000100010001000100010001000100010022
:1006D0000100010001000100010001000100000013
:1006E0000100010001000100010001000100010002
:1006F00001000100010001000100010001000100F2
:1007000001000100010000000000000001000000E5
:1007100001000100010001000100010001000100D1
:1007200001000100010001000100010001000100C1
:1007300001000100010001000100010001000100B1
:1007400001000100010001000100010001000100A1
:100750000100010001000100010001000100010091
:100760000100010001000100010001000100010081
:100770000100010000000100010001000100010072
:100780000100010001000100010001000100010061
:100790000100010001000100010001000000000053
:1007A0000000010000000100010001000100010043
:1007B0000100010001000100010001000100010031
:1007C0000100010001000100010001000100010021
:1007D0000100010001000100010001000100010011
:1007E0000100010001000100010001000100010001
:1007F00001000100010001000100010001000100F1
:1008000001000100010001000100000001000100E1
:1008100001000100010001000100010001000100D0
:1008200001000100010001000100010001000100C0
:1008300001000000000000000100000001000100B4
:1008400001000100010001000100010001000100A0
:100850000100010001000100010001000100010090
:100860000100010001000100010001000100010080
:100870000100010001000100010001000100010070
:100880000100010001000100010001000100010060
:100890000100010001000100010001000100010050
:1008A0000000010001000100010001000100010041
:1008B0000100010001000100010001000100010030
:1008C0000100010001000100000000000000010023
:1008D0000000010001000100010001000100010011
:1008E0000100010001000100010001000100010000
:1008F00001000100010001000100010001000100F0
:1009000001000100010001000100010001000100DF
:1009100001000100010001000100010001000100CF
:1009200001000100010001000100010001000100BF
:1009300001000100010000000100010001000100B0
:10094000010001000100010001000100010001009F
:100950000100010001000100010001000100000090
:100960000000000001000000010001000100010082
:10097000010001000100010001000100010001006F
:10098000010001000100010001000100010001005F
:10099000010001000100010001000100010001004F
:1009A000010001000100010001000100010001003F
:1009B000010001000100010001000100010001002F
:1009C0000100010001000100010001000000010020
:1009D000010001000100010001000100010001000F
:1009E00001000100010001000100010001000100FF
:1009F00001000100000000000000010000000100F3
:100A000001000100010001000100010064321464D2
:100A10003214783C1E1E140A05000000000101017A
:100A20000202030405050607090A0B0C0E0F11123A
:100A3000141517191B1D1F212325282A2C2F31348B
:100A400036393B3E414346494C4F5255585A5D61F9
:100A500064676A6D707376797C7F8386898C8F92E8
:100A600095989B9EA2A5A7AAADB0B3B6B9BCBEC1CE
:100A7000C4C6C9CBCED0D3D5D7DADCDEE0E2E4E61B
:100A8000E8EAEBEDEEF0F1F3F4F5F6F8F9FAFAFB3B
:100A9000FCFDFDFEFEFEFFFFFFFFFFFFFFFEFEFE73
:100AA000FDFDFCFBFAFAF9F8F6F5F4F3F1F0EEEDE2
:100AB000EBEAE8E6E4E2E0DEDCDAD7D5D3D0CECB71
:100AC000C9C6C4C1BEBCB9B6B3B0ADAAA7A5A29EE3
:100AD0009B9895928F8C898683807C797673706DD4
:100AE0006A6764615D5A5855524F4C494643413ECE
:100AF0003B393634312F2C2A282523211F1D1B1961
:100B000017151412110F0E0C0B0A09070605050420
:100B100003020201010100000000000000000101C9
:100B200001010101010101020202020202020202AC
:100B3000030303030303030304040404040405057B
:100B4000050505060606060607070707080808083C
:100B50000909090A0A0A0A0B0B0B0C0C0C0D0D0DE6
:100B60000E0E0F0F0F101011111112121313141477
:100B7000151516161717181819191A1A1B1C1C1DEB
:100B80001D1E1F1F20202122222324252526272742
:100B900028292A2B2B2C2D2E2F2F30313233343570
:100BA00036363738393A3B3C3D3E3F40414243447C
:100BB000464748494A4B4C4D4F5051525355565752
:100BC000585A5B5C5E5F606263646667696A6C6DFD
:100BD0006E707173747678797B7C7E808183848675
:100BE000888A8B8D8F91929496989A9B9D9FA1A3B2
:100BF000A5A7A9ABADAFB1B3B5B7B9BBBDBFC1C4B4
:100C0000C6C8CACCCFD1D3D6D8DADCDFE1E4E6E877
:100C1000EBEDF0F2F5F7FAFCFF12036B00650079DB
:100C20000062006F00610072006400000016037132
:100C3000006D006B006200750069006C0064006567
:100C400000720000000403090409026D00040100A1
:100C5000A0FA0904000001030101000921110100AB
:100C6000012240000705810308000A090401000170
:100C700003010200092111010001224D0007058234
:100C80000308000A09040200010300000009211101
:100C90000100012236000705830308000A09040346
:100CA00000010300000009211101000122390007A1
:100CB0000584032000011201100100000008EDFE70
:100CC000606001000102000105010906A10105079C
:100CD00019E029E71500250195087501810205082D
:100CE0001901290595057501910295017503910179
:100CF0000507190029F71500250195F875018102EE
:100D0000C005010980A10185021601002603001A11
:100D100081002A8300751095018100C0050C09012E
:100D2000A1018503160100269C021A01002A9C02DB
:100D3000751095018100C005010902A1010901A1F9
:100D40000005091901290515002501950575018181
:100D500002950175038101050109300931158125CD
:100D60007F95027508810609381581257F950175E3
:100D7000088106050C0A38021581257F9501750842
:100D80008106C0C005010906A101050719E029E790
:100D900015002501950875018102950175088101ED
:100DA000050819012905950575019102950175033D
:100DB00091010507190029FF150026FF009506750A
:100DC000088100C011241FBECFEFDAE0DEBFCDBF27
:100DD00004B603FE27C08091AA029091AB02A091B5
:100DE000AC02B091AD028730904BA740B04BD1F42C
:100DF0001092AA021092AB021092AC021092AD02B5
:100E000014BE84B7877F84BF0FB6F894A8958091ED
:100E10006000886180936000109260000FBEE0E087
:100E2000F8E3099511E0A0E0B1E0E0E2F8E502C0E6
:100E300005900D92AC33B107D9F722E0ACE3B1E0F5
:100E400001C01D92AA3AB207E1F70E9434250C9422
:100E50000E2C0C94000090E080E008950895089511
:100E600081E0089581FF03C03F9A479808953F9815
:100E7000FCCF81E008950C9430070E941D172FEFDE
:100E800084E39CE0215080409040E1F700C00000E6
:100E90000C944B1FFF920F931F93CF93DF938C0102
:100EA000FC01C081D18180918D01811148C0828176
:100EB000882309F43FC0CE010E94841CF82E682FBD
:100EC000CE010E942A1CBE018F2D0E942B09EC012D
:100ED000B8010E943B07882309F478C0B801CE010D
:100EE0000E945B0B882309F471C0C633F0E7DF076B
:100EF00009F484C0C0F5C53190E7D90728F5C230A0
:100F0000E0E7DE0708F099C0C115F0E7DF0709F454
:100F100058C0C130D04709F460C081E080933E01E1
:100F200080933F01C801DF91CF911F910F91FF90F6
:100F30000C943907CE010E94591CF82EC4CFCE0163
:100F40000E94841CBE01C1CFC43390E7D90709F4C5
:100F50004EC0C533D04709F7F80182818823B1F12B
:100F60000E94840F33C0CA33F0E7DF0709F457C08B
:100F700070F4F8018281C833F0E7DF0709F44AC052
:100F800008F443C0882311F10E94C80E1FC0CC335F
:100F9000E0E7DE0709F4D5C008F448C0CD33D047F8
:100FA00009F0BBCFF8018281882309F4F1C01092C7
:100FB0003F010E94F01E90933D0180933C0180E22E
:100FC000CDC0F801828181110E943D0780E0DF9150
:100FD000CF911F910F91FF900895F801828188238E
:100FE000A9F380912502816080932502EFCFF8015B
:100FF0008281882359F30E948E0FE8CFF801828105
:10100000882321F30E94790EE1CF8823F9F20E9410
:10101000910EDCCF8823D1F20E94B00ED7CFF80119
:101020008281882399F20E94E00ED0CFF80182815C
:10103000882361F20E94F80EC9CFF80182818823CB
:1010400009F470CF0E94411E811102C00E941B1E34
:101050000E945E1E90E090939B0280939A02FE0194
:10106000E350F04780919A028160E231F105C8F4C3
:10107000E45CF74F0C94C02B4E085A085E086208D7
:1010800066086A086E08720876087A087E08820880
:1010900086088A088E08920896089A0880919A0213
:1010A000826080939A0280919A020E94621E0E943E
:1010B0001D178CCF80919A028460F3CF80919A02A1
:1010C0008860EFCF80919A028061EBCF80919A0285
:1010D0008062E7CF80919A028064E3CF80919A0288
:1010E0008068DFCF80919A028460EACF80919A0273
:1010F0008E7FD7CF80919A028D7FD3CF80919A0235
:101100008B7FCFCF80919A02877FCBCF80919A023D
:101110008F7EC7CF80919A028F7DC3CF80919A0234
:101120008F7BBFCF80919A028F77BBCF80919A023D
:101130008B7FEACF90919A02892F97FB87F980588D
:10114000B0CFF8018281882361F010923E010E94A5
:10115000F01E90933D0180933C0182E00E94871431
:1011600035CF80913E0181110FC080913C0190915B
:101170003D010E94FC1E883C910530F486E20E94ED
:101180005C1386E20E94381482E00E948E141ECF07
:1011900080913F0181110FC080913C0190913D01F0
:1011A0000E94FC1E883C910530F487E20E945C138B
:1011B00087E20E94381480E2E8CF0C94AC0B269AA8
:1011C0002E988FEF9FEF909387008093860082E2A6
:1011D0008093800089E1809381000C94E9220E9431
:1011E000DF080C94AA0B2E9881110AC08091800010
:1011F0008F7D8093800010928B0010928A0008955A
:10120000853061F4809180008062809380008FEF50
:101210009FEF90938B0080938A00089590918000B7
:1012200090629093800025E030E0A901481B5109AD
:10123000CA019A01220F331F280F391F8FEF9FEF2A
:1012400002C0969587952A95E2F7E3CF0C94320772
:101250000C9426090895972F70E02FE0929F600D5F
:10126000711D1124FB019BE4899FE00DF11D1124E8
:10127000EE0FFF1FE455FF4F859194910895FC01F7
:10128000EE0FFF1FE45FF54F8591949108950E9442
:101290002B090E94DA0A811520E5920708F040C068
:1012A000811530E4930708F0FAC0883E910518F5DF
:1012B000803E910508F07DC1883A910580F4853A19
:1012C000910508F087C08130910509F472C120F0C2
:1012D0008430910508F06DC190E080E008958D3B69
:1012E000910508F482C0803C9105B0F3805C9109BF
:1012F0000E943F090895811540E2940750F481153A
:1013000021E0920708F055C1803F910528F39065D0
:101310000895811530E3930708F0BEC09F70E8CFB1
:10132000811545E5940760F5811524E5920708F0DD
:10133000E5C0811532E5930750F4811541E5940726
:1013400008F4B0C0982F8827816F906A0895282FDD
:1013500026952695AC01437055278115934508F0D5
:10136000BEC081E090E002C0880F991F4A95E2F765
:1013700040E2249F90011124822B932B9C680895B6
:10138000803340E7940798F4803220E7920708F012
:10139000BFC0811536E5930708F4B5C09C013056EF
:1013A0009F702115304108F097CF906208958133E6
:1013B00020E7920709F4B3C008F4AEC0823340E7D7
:1013C000940709F4AFC08333904709F085CF80E0DC
:1013D00093ED0895853A910509F4A7C0863A9105E1
:1013E00009F0A6C082E890E40895883A910509F4CE
:1013F000A2C0893A910509F4A1C08A3A910509F47D
:10140000A0C08B3A910509F49FC08C3A910509F46C
:101410009EC08B3B910509F49DC08C3B910509F45E
:101420009CC08D3A910509F49BC0803B910509F45D
:101430009AC08E3A910509F499C08F3A910509F442
:1014400098C0813B910509F497C0823B910509F44E
:1014500096C0833B910509F495C0843B910509F43E
:1014600094C0853B910509F493C0863B910509F42E
:1014700092C0873B910509F491C0883B910509F41E
:1014800090C0893B910509F48FC08A3B910509F40E
:101490008EC080E094E408959927906C08959F7021
:1014A000906A08959C0154E0369527955A95E1F786
:1014B000922F9370482F437021E030E002C0220F3A
:1014C000331F4A95E2F73C68392B869586958370E1
:1014D00040E2849FC0011124822B932B089581E068
:1014E00090E002C0880F991F4A95E2F740E2249FDE
:1014F00090011124822B932B9A680895982F8827A6
:10150000846F906A0895982F882788279F714DCF00
:1015100080529047946D089580E091ED089580E0A9
:1015200090ED089580E092ED089581E890E40895AB
:1015300083E890E4089582EE94E4089589EE94E4BB
:1015400008958AEE94E4089585EB94E4089586EB7B
:1015500094E4089583EB94E4089584EB94E408956F
:1015600087EB94E408958CEC94E408958DEC94E476
:10157000089583E895E408958AE895E4089582E95A
:1015800095E4089584E995E4089581E296E4089548
:1015900083E296E4089584E296E4089585E296E471
:1015A000089586E296E4089587E296E408958AE233
:1015B00096E408958238910549F1B0F4813391059C
:1015C00009F45CC048F48932910509F452C08A32AA
:1015D000910509F458C008958533910509F444C074
:1015E0008933910599F00895833E910531F138F4DE
:1015F000803E910591F0823E9105B1F00895863EBE
:10160000910511F1873E910541F1089520919A02CB
:101610002370C9F080EE90E0089520919A0220FF97
:1016200012C089E390E0089520919A0222FF0BC036
:1016300024FF2EC090E080E0089520919A0222FDC0
:101640002AC024FDF7CF089520919A0223FFFBCFF3
:1016500024FDF0CF87EE90E0089520919A0223FFB9
:10166000F0CF86EE90E0089520919A0225FD16C0F5
:10167000089520919A0225FD14C0089520919A02A0
:1016800026FD12C0089520919A0226FD10C00895EB
:1016900083EE90E0089582EE90E0089589E290E074
:1016A000089585E390E008958AE290E0089581E34B
:1016B00090E0C9CF08950F931F93CF938C01FB0146
:1016C0008281811106C0C1E08C2FCF911F910F91B3
:1016D0000895C0914D01C11125C00531104799F7FA
:1016E0000E945A0B81E080934D010E94F01E90935E
:1016F0004C0180934B0110924001109242011092D4
:10170000410110924401109243011092460110923F
:101710004501109248011092470110924A0110921F
:101720004901D2CF80914B0190914C010E94FC1E47
:10173000883C910540F680914001E82FF0E0EE0FE3
:10174000FF1FEF5BFE4F118300838F5F809340018B
:10175000C0E0BACF0C942E070C942F07CF93DF93E1
:1017600085B7806885BF85B7806885BFA4E1B1E093
:1017700043E251E0C1E0D0E08D91E82FE295EF70B7
:10178000F0E061A18F709E0101C0220F8A95EAF7F7
:10179000922F9095962391A382A1822B82A34A1720
:1017A0005B0751F7A3E2B1E061E070E08D91E82FB3
:1017B000E295EF70F0E041A18F709B0101C0220F14
:1017C0008A95EAF7922F9095942391A382A1822B78
:1017D00082A381E0A832B80749F71092590110920C
:1017E000580110924F0110924E0110925B0110921D
:1017F0005A01109251011092500110925D01109205
:101800005C01109253011092520110925F011092EC
:101810005E011092550110925401109261011092D4
:1018200060011092570110925601DF91CF910C94F4
:10183000EF084F925F926F927F928F929F92AF923A
:10184000BF92CF92DF92EF92FF920F931F93CF93AD
:10185000DF9304E111E0512C412CEE24E394F12CB0
:1018600077247394E80189918E01E82FE295EF7057
:10187000F0E091A18F70970101C0220F8A95EAF7DD
:10188000892F822B81A382A1922E9094892182A3F9
:10189000D0EADA95F1F76701042C02C0CC0CDD1C0C
:1018A0000A94E2F75601A094B094AEE4B1E043E2AA
:1018B00051E0812C6D917C911197EA016990AE0104
:1018C000862D82958F7090E0EC0188A190E0D62D56
:1018D000DF7002C095958795DA95E2F780FD75C0B7
:1018E000CB018C299D2911969C938E938D919C916F
:1018F00011976817790711F088248394129681E074
:1019000048325807B9F681A1982291A282A1282BCA
:1019100022A3882041F0709262010E94F01E9093F1
:10192000640180936301CFEF4C1A5C0ADFE04D162F
:10193000510409F097CF80916201882391F1809141
:101940006301909164010E94FC1E069750F1809102
:101950004E0190914F0190935901809358018091CD
:1019600050019091510190935B0180935A018091B5
:1019700052019091530190935D0180935C0180919D
:1019800054019091550190935F0180935E01809185
:1019900056019091570190936101809360011092DC
:1019A00062010E94DD0881E0DF91CF911F910F91CC
:1019B000FF90EF90DF90CF90BF90AF909F908F906F
:1019C0007F906F905F904F900895CB018A219B216B
:1019D0008ACFE82FF0E0EE0FFF1FE85AFE4F80811C
:1019E0009181089508953EB1242F209523233EB17F
:1019F000432B3FB7F894FC01680F791FE617F707F0
:101A000011F43FBF0895819198E04EB9000000C0E5
:101A100087FF2EB9880F000000C000C000C02EB99B
:101A200000C09A9591F7EACF2DB1242B2DB99B01D7
:101A3000220F331F620F731F0E94F30C87EC90E09C
:101A40000197F1F700C00000089544E00C94140DD4
:101A5000CF92DF92EF92FF920F931F93CF93DF937A
:101A6000E901662309F466C0E42EF12CEFEFF0E003
:101A7000E61BF109EE9D8001EF9D100DFE9D100DFE
:101A80001124212FE12FFF27EE1AFF0A5CE3C52E58
:101A9000D12CB6010E94982BFB01BC01E69EC0012F
:101AA000E79E900DF69E900D1124B6010E94982B92
:101AB000E230F10589F168F4812F262F210F30974C
:101AC00081F0242F461B319761F080E020E040E058
:101AD00008C0E430F10551F128F1842F861B3597B9
:101AE000A1F7E42FF0E0E75EF44F4491E22FF0E03D
:101AF000E75EF44F9491E82FF0E0E75EF44FE49155
:101B000049839883EA83DF91CF911F910F91FF90D2
:101B1000EF90DF90CF900895862F810FE42F412F13
:101B20002E2FDFCFE42FE61B842FF9CF842F462FF3
:101B3000410FD7CF842F242FD4CF88E090E00C948E
:101B4000CE2BAB01BC0188E090E00C94EC2BE2E5DD
:101B5000F2E083E08083109253028FEF82838383CD
:101B600060915202709153028091540290915502FB
:101B70000C94A10D80915202EAE5F2E080FF06C0CC
:101B800064E170E08AE592E00C94250D11821082E8
:101B90001282339682E0E639F807C1F7F1CFEAE521
:101BA000F2E0818360834283339692E0E639F9075D
:101BB000C1F70C94BA0DEF92FF920F931F93CF933E
:101BC000DF9300D01F92CDB7DEB7182FE92EF62E87
:101BD000042F8091520290915302A0915402B0912F
:101BE00055028093560290935702A0935802B093E7
:101BF00059028091520280FF1FC09E012F5F3F4F0C
:101C0000812F9E2D0E94280D8091560210FB87F98E
:101C1000809356021695809157028078812BE0FAC6
:101C200087F980935702F0925802009359024B8132
:101C300069818A810E94CF0D0F900F900F90DF91E4
:101C4000CF911F910F91FF90EF9008950F931F93E5
:101C5000CF93DF93EC01062F142F9091520290FF47
:101C600043C0892F8E77823021F5CE010E94DB0D93
:101C700080915202C0FB87F980935202C6958091F1
:101C800053028078C82BD0FBC7F9C093530200934E
:101C90005402109355026091520270915302809148
:101CA000540290915502DF91CF911F910F910C94A6
:101CB000A10D892F86958F732EE3280F2F73243063
:101CC00018F410915502D4CF865C8F73893080F65A
:101CD000991F9927991FD0915302CD2FCC0FC92B53
:101CE000D7FBDD27D0F9C4CFDF91CF911F910F91A2
:101CF0000895E2E5F2E02081221F2227221F309181
:101D00005302432F440F842F822B37FB992790F9DE
:101D1000089668E671E00E94AC2B438162810C94C6
:101D2000260E20915202221F2227221F3091530299
:101D3000432F440F842F822B37FB992790F988304B
:101D4000910540F4805A9E4F409155026091540293
:101D50000C94260E089768E671E00E94AC2BF4CF35
:101D600060915402683F90F4685F80915202881F2E
:101D70008827881F90915302292F220F97FB9927BC
:101D800090F940915502822B0C94260E6FEFEDCF07
:101D900060915402683090F0685080915202881F20
:101DA0008827881F90915302292F220F97FB99278C
:101DB00090F940915502822B0C94260E60E0EDCFF5
:101DC00040915502483F90F4485F80915202881F2D
:101DD0008827881F90915302292F220F97FB99275C
:101DE00090F960915402822B0C94260E4FEFEDCFA8
:101DF00040915502483090F0485080915202881F1F
:101E00008827881F90915302292F220F97FB99272B
:101E100090F960915402822B0C94260E40E0EDCF95
:101E20009091520290FF3BC09178811126C0926040
:101E30009093520260915202709153028091540229
:101E4000909155020E94A10D80915202982F9E7789
:101E50009230D9F410927A01881F8827881F9091B8
:101E60005302292F220F97FB992790F94091550291
:101E700060915402822B0C94260E893110F09063ED
:101E8000D7CF8F73880F982BD3CF982F9695925CCE
:101E90009F73963108F791E090937A01DDCF089512
:101EA0008091250281608093250281E080937B01EF
:101EB0000E94411E811104C00E941B1E0E94A70D9A
:101EC0000E949D0D609352027093530280935402BE
:101ED000909355026E7761F40E94A70D0E949D0DAC
:101EE0006093520270935302809354029093550270
:101EF00081E080937A018091520280FF04C0869530
:101F00008F730C94100F08958091520286958F73F1
:101F10008F5F893108F081E00C94100F909152028C
:101F2000892F8E7F90FF81608093520260915202D0
:101F30007091530280915402909155020E94A10D1C
:101F40008091520280FF04C086958F730C94100F0D
:101F500010927A012FEF80E792E02150804090406C
:101F6000E1F700C000000C94BA0DCF93C82F809108
:101F70007801909179010E94FC1EEC2FF0E0EB5E5D
:101F8000F54FE491E817190609F010F50E94F01ECC
:101F90009093790180937801E0917701F0E0E75E1A
:101FA000F54F449180915202881F8827881F909195
:101FB0005302292F220F97FB992790F96091540221
:101FC000822B0E94DB0D809177018F5F80937701D8
:101FD000CF910895CF93C82F80917501909176018C
:101FE0000E94FC1EEC2FF0E0EE5EF54FE491E81746
:101FF000190609F0E8F40E94F01E90937601809390
:102000007501409155026091540280917301909145
:1020100074010E94DB0D809173019091740101960F
:1020200068E671E00E94982B90937401809373018D
:10203000CF910895CF92DF92FF920F931F93CF938A
:10204000DF93F82E80917101909172010E94FC1E25
:10205000EF2DE695F0E0EE5EF54FE491E8171906F6
:1020600009F0A8F50E94F01E90937201809371010F
:102070000AE512E0D0E0C0E088E6C82EDD24D39463
:1020800080916F01909170018C0F9D1FB6010E948D
:10209000982B980140915502609154020E94280D9E
:1020A00062960D5F1F4FC83681E0D80749F70E943E
:1020B000BA0D80916F0190917001F0FE10C00196F1
:1020C000BE010E94982B9093700180936F01DF9165
:1020D000CF911F910F91FF90DF90CF9008950197BE
:1020E000F2CFAF92BF92CF92DF92EF92FF920F9317
:1020F0001F93CF93DF93C82FFF24FA9480FD02C073
:10210000FF24F39480916D0190916E010E94FC1E5A
:10211000C695EC2FF0E0E15FF54FE491E817190662
:1021200011F008F053C00E94F01E90936E0180934E
:102130006D01CAE5D2E010E000E097E0C92ED12C95
:10214000198218821A8287E0A82EB12CE12C809186
:102150006C018E0D87FD8C5E082E000C990B081704
:102160001907E9F4209155022A9DC0012B9D900D7D
:102170001124B6010E94AC2B462F80915202881F79
:102180008827881F90915302592F550F97FB992745
:1021900090F99E0160915402852B0E94280DEF0C4E
:1021A00081E0A81AB10899F60F5F1F4F23960431FA
:1021B000110531F60E94BA0D80916C0191E0F9127F
:1021C00012C081110EC083E180936C01DF91CF9129
:1021D0001F910F91FF90EF90DF90CF90BF90AF9045
:1021E00008958150F1CF90E00196B8010E94AC2B88
:1021F000EBCFBF92CF92DF92EF92FF920F931F939C
:10220000CF93DF93CDB7DEB7EC970FB6F894DEBF70
:102210000FBECDBF182F80916A0190916B010E9473
:10222000FC1EE12FF0E0E45FF54FE491E81719069A
:1022300011F008F07AC00E94F01E90936B01809319
:102240006A018E010F5F1F4FF12CE12C6801D8014C
:1022500011961C9211971C9212961C92B12C90917F
:10226000000180916901B99E800D112484310CF028
:1022700083E187FD80E0082E000C990BE816F90633
:10228000A1F480915202881F8827881F90915302E1
:10229000592F550F97FB992790F9980140915502B6
:1022A00060915402852B0E94280DB394B7E0BB12B5
:1022B000D6CFEFEFEE1AFE0A0D5F1F4FF4E1EF16D7
:1022C000F10429F62AE532E009E010E054E1E52EB8
:1022D000F12CC801B7010E94AC2BFC01EE0FFF1FCF
:1022E000E80FF91FEC0DFD1D8181D90111968C932A
:1022F000119780818C93828112968C930F5F1F4F70
:102300002D5F3F4F0D31110521F70E94BA0D9091BD
:102310000001809169019130E1F48A3FB4F489EFC2
:10232000809369018FEF80930001EC960FB6F894CB
:10233000DEBF0FBECDBFDF91CF911F910F91FF90F8
:10234000EF90DF90CF90BF90089581508093690106
:10235000ECCF8B312CF08AE18093690181E0E3CFEF
:102360008F5FF4CFCF93DF938091670190916801E5
:102370000E94FC1E883E934028F10E94F01E90931C
:1023800068018093670180916501909166010196D3
:10239000817099279093660180936501CAE5D2E028
:1023A0009E01409155026091540290E080E00E94AD
:1023B000280D239682E0C639D80791F7DF91CF9197
:1023C0000C94BA0DDF91CF91089580917A01882302
:1023D00071F18091520286958F739EE3980F9F73DF
:1023E000943018F482500C94B50F9AE3980F9F73B1
:1023F000933018F486500C94EA0F97E3980F9F736C
:10240000963018F489500C941A1091E3980F9F732A
:10241000963018F48F500C9471109BE2980F9F73B4
:10242000933018F485510C94F9100C94B21108955E
:1024300090938101809380010895E0918001F09153
:102440008101309721F00190F081E02D099480E026
:102450000895E0918001F0918101309721F0028090
:10246000F381E02D09940895E0918001F0918101BC
:10247000309721F00480F581E02D09940895209192
:102480007E0130917F012817390771F090937F0109
:1024900080937E01E0918001F0918101309721F0DD
:1024A0000680F781E02D0994089520917C013091F8
:1024B0007D012817390771F090937D0180937C018D
:1024C000E0918001F0918101309721F00084F18545
:1024D000E02D0994089508950C946B120E94E71E54
:1024E0000E94AE0B0E94B81F0E94E9220C94500F6C
:1024F0005F926F927F928F929F92AF92BF92CF9294
:10250000DF92EF92FF920F931F93CF93DF93CDB79C
:10251000DEB72A970FB6F894DEBF0FBECDBF0E947C
:10252000190C93E8A92E91E0B92E10E000E0882460
:102530008394912C502E802F0E94E90C7C01F50190
:10254000C190D1905F01C816D90609F45EC0809190
:10255000250281FD0E94F20C90E080E0CE24DF2471
:102560003401082E02C0660C771C0A94E2F796012B
:1025700026213721232B09F443C08E835F82E62076
:10258000F72081E0EF2809F480E088870E94F01EA0
:102590008160782F9A8789874E815F8168858A85D7
:1025A0000E943213000F111FF801ED57FE4F80817A
:1025B000918168267926718260820E943B220E9466
:1025C0001D12909182018917B9F10E941D1280930A
:1025D00082012A960FB6F894DEBF0FBECDBFDF9101
:1025E000CF911F910F91FF90EF90DF90CF90BF9010
:1025F000AF909F908F907F906F905F900C94280980
:1026000001968F30910509F0ABCF0F5F1F4F05305A
:10261000110509F08FCF8FEF89838A831B820E9477
:10262000F01E8160782F9D838C8349815A816B8154
:102630008D810E943213C1CF2A960FB6F894DEBF67
:102640000FBECDBFDF91CF911F910F91FF90EF9003
:10265000DF90CF90BF90AF909F908F907F906F90C2
:102660005F900895CF93DF93CDB7DEB72B970FB66A
:10267000F894DEBF0FBECDBF4F83588769877A8736
:102680008B871E821D8285E0FE013796DE01119642
:1026900001900D928A95E1F749815A816B817C8185
:1026A0008D819E812B960FB6F894DEBF0FBECDBFF5
:1026B000DF91CF910C94CF19882309F4D8C08238C8
:1026C00071F40E941D1281FDD2C089E30E94241D75
:1026D0000E94EC1D89E30E94611D0C94EC1D83385F
:1026E00059F40E941D1280FDC2C083E50E94241D82
:1026F0000E94EC1D83E5EFCF843859F40E941D122F
:1027000082FDB5C087E40E94241D0E94EC1D87E471
:10271000E2CF9CEF980F913A18F40E94241DDDCF70
:1027200090E2980F983050F4877091E001C0990FB3
:102730008A95EAF7892F0E94A31DCFCF9BE5980FBA
:10274000933070F4853A31F0863A39F083E890E0BE
:102750000C943F1281E890E0FBCF82E890E0F8CF44
:1027600098E5980F953108F082C0883A09F440C086
:10277000893A09F440C08A3A09F440C08B3A09F416
:1027800040C08C3A09F440C08B3B09F440C08C3BFC
:1027900009F440C08D3A09F440C0803B09F440C0C0
:1027A0008E3A09F440C08F3A09F440C0813B09F4E5
:1027B00040C0823B09F440C0833B09F440C0843BE5
:1027C00009F440C0853B09F440C0863B09F440C091
:1027D000873B09F440C0883B09F440C0893B09F4B9
:1027E00040C08A3B09F440C090E080E00C94551250
:1027F00082EE90E0FBCF89EE90E0F8CF8AEE90E099
:10280000F5CF85EB90E0F2CF86EB90E0EFCF83EB56
:1028100090E0ECCF84EB90E0E9CF87EB90E0E6CF5F
:102820008CEC90E0E3CF8DEC90E0E0CF83E891E09A
:10283000DDCF8AE891E0DACF82E991E0D7CF84E971
:1028400091E0D4CF81E292E0D1CF83E292E0CECF8B
:1028500084E292E0CBCF85E292E0C8CF86E292E0BC
:10286000C5CF87E292E0C2CF8AE292E0BFCF08955F
:10287000882309F44BC0823871F40E941D1281FF35
:1028800045C089E30E94241D0E94EC1D89E30E943B
:10289000611D0C94EC1D833859F40E941D1280FFB9
:1028A00035C083E50E94241D0E94EC1D83E5EFCF17
:1028B000843859F40E941D1282FF28C087E40E94C8
:1028C000241D0E94EC1D87E4E2CF9CEF980F913A03
:1028D000F0F290E2980F983050F4877091E001C0C8
:1028E000990F8A95EAF7892F0E94A91DD2CF9BE5FF
:1028F000980F933020F490E080E00C943F12885AB7
:10290000853120F490E080E00C94551208958823DE
:1029100021F00E94A31D0C94EC1D0895882321F042
:102920000E94A91D0C94EC1D08958F929F92AF9266
:10293000BF92DF92EF92FF920F931F93CF93DF939B
:102940007C01D62FC72FFC01058102950F701281E3
:1029500011110E94C21D0E941D1DD82E882371F0E6
:10296000112321F180E28D0F883000F182E00E9476
:10297000071D0E941D1D91E0D82ED926EC2FE2954F
:10298000EF70F0E0EA53FB4E0C94C02BD814D8142F
:10299000281528156A1586150515051591150515AF
:1029A000291629169C16A5160515C516D12CE6CF95
:1029B0000C2F0F70C07F11F00295007F1123A9F03A
:1029C000002359F080E28D0F883010F0D11109C03A
:1029D000802F0E94A31D0E94EC1D8D2F0E945C136E
:1029E00014C0802F0E94B41DF6CF8D2F0E94381482
:1029F000002359F080E28D0F883010F0D11124C0EF
:102A0000802F0E94A91D0E94EC1DDD2009F4C4C185
:102A10000E94FA1C80FDC0C1F70112820E94F41CC2
:102A20000E946E1BC7010E94D8160E94F41CDF9101
:102A3000CF911F910F91FF90EF90DF90BF90AF90DB
:102A40009F908F900C948F1B802F0E94BA1DDBCF1C
:102A5000FC2FFF70BF2EC07FC03219F0B29480EF00
:102A6000B822DD2369F0D13029F1112369F1002367
:102A700059F0F701858180FFB0CF8F70858304C046
:102A8000112361F0011104C08B2D0E948714BDCF6A
:102A90008B2D0130D1F70E94D61DB7CF011106C092
:102AA0000E94D91D8B2D0E948E14AFCF013009F4E6
:102AB000ACCFF6CF112321F0063008F0A6CFE4CF3B
:102AC000053008F0A2CFEECF002361F38D2F0E94D6
:102AD00038149BCF8C2F86958695837069F0813052
:102AE00009F093CF8D2F9C2F9370111102C090E0AD
:102AF00080E00E94551289CF8D2F9C2F9370111169
:102B000002C090E080E00E943F127FCF8D2F112302
:102B100029F00E9444210E94302277CF0E94AC21EC
:102B2000FACF8C2F837009F047C011116ECF2D2F73
:102B3000229526952770220F220F6D2F6F70862EFB
:102B4000912CB12CA12C022E04C0880C991CAA1C1B
:102B5000BB1C0A94D2F760E070E0CB01D4FF0FC039
:102B60006FE070E080E090E004C0660F771F881F80
:102B7000991F2A95D2F76095709580959095C69586
:102B8000C695C370C23051F080F4682979298A292A
:102B90009B29C13071F00E94171B37CF6829792912
:102BA0008A299B290E94331B30CF0E94171BC50125
:102BB000B4010E94FB1A29CF8695112311F08C2FA6
:102BC0008170882309F421CF2D2F22952695277017
:102BD000220F220F6D2F6F70862E912CB12CA12CFD
:102BE000022E04C0880C991CAA1CBB1C0A94D2F7A4
:102BF00060E070E0CB01D4FF0FC06FE070E080E0D8
:102C000090E004C0660F771F881F991F2A95D2F79E
:102C10006095709580959095C695C695C370C230A5
:102C200051F080F4682979298A299B29C13071F0F3
:102C30000E94F11BEACE682979298A299B290E94E2
:102C40000D1CE3CE0E94F11BC501B4010E94D51BEF
:102C5000DCCEE0E2ED0FE53108F062C0F0E0ED5CC3
:102C6000F94E0C94C02B48164816481648164816BC
:102C70004816481648164816481648164816481664
:102C8000481648164816551663166A1671167B16AE
:102C9000DF708C2F8F71112321F00E946E1B8D2FFE
:102CA000F4CE0E948F1B8D2FFECE112341F00530F4
:102CB00008F0ABCE8C2F8F710E94B41BA6CE0630CD
:102CC00008F0A3CEF7CF8C2F8F71112339F00E941B
:102CD0006E1B9BCE8C2F8F711123C9F30E948F1B0B
:102CE00094CE112329F08C2F8F710E94591B8DCE09
:102CF0000E944F1B8ACE112349F0CF718C2F0E9466
:102D00006E1B63E08C2F0E94FE1C7FCE81E00E9430
:102D1000071D023008F479CE82E00E94071D75CEAF
:102D2000112329F0011159CE8C2F8F71D0CF0111B1
:102D3000CDCE8C2F8F71D2CF4C2F4F706D2FC701FE
:102D40000E942B070E94781A60CE11115ECECF70C0
:102D5000C230A9F040F4CC2379F0C13009F055CE4F
:102D60000E94122352CEC33069F0C43009F04DCE18
:102D70008D2F0E94612349CE0E94FA2246CE0E94E6
:102D80002B2343CE0E943E2340CE4C2F4F706D2FFD
:102D9000C7010E942A0939CEDF91CF911F910F916F
:102DA000FF90EF90DF90BF90AF909F908F9008952D
:102DB0000F931F93CF93DF93EC01988189812B812F
:102DC0003C81232B39F08F3F19F481E09F3F19F0AC
:102DD00080E001C081E080FD17C0CE010E944A075B
:102DE000882391F0688179818A810E94D01C8C01AE
:102DF0000E94291C0E94F01AB801CE01DF91CF91E8
:102E00001F910F910C949514DF91CF911F910F9109
:102E100008950E94C21D0E94D31D0E94951D0E940C
:102E2000EC1D0E94DD220E94302290E080E00E9492
:102E30003F1290E080E00C9455120E94B11D0C945A
:102E400009170E94C61CE92FE295EF70E250EE30A0
:102E5000E0F4F0E0E25DF84E0C94C02B3C173C1718
:102E60004517451747174517451745173C173C1792
:102E70004C17451745174C17803F19F020F4803E3A
:102E800020F481E00895843FE1F380E00895803EDE
:102E9000C0F3813FD1F7F5CF93FB882780F90895E0
:102EA000CF93DF9300D000D01F92CDB7DEB70F9045
:102EB0000F900F900F900F90DF91CF910895CF93C7
:102EC000DF9300D000D000D0CDB7DEB726960FB686
:102ED000F894DEBF0FBECDBFDF91CF9108951F9351
:102EE000CF93DF93C0918E0116E080918F018C13F8
:102EF00004C0DF91CF911F910895D0E01C9FF00195
:102F00001D9FF00D1124E057FE4F408151816281D9
:102F10007381848195810E945F172196C770E5CFE8
:102F20004091C0015091C1016091C2017091C301F3
:102F30008091C4019091C5010C945F171F93CF93AA
:102F4000DF938091C501807FD1F48091C2018823F5
:102F5000B1F080918E01D0918F01B091C001C091EC
:102F6000C1014091C3015091C401A1E0BF3F09F0EC
:102F7000A0E0BA016095709516E0D81304C0DF9107
:102F8000CF911F91089521E04115510521F02A2F7D
:102F9000CF3F09F020E090E020FD38C0189FF001FD
:102FA000199FF00D1124E057FE4F21812C132EC0E4
:102FB00020812B132BC02281211128C02381348131
:102FC0002417350700F1241B350B283C3105F0F49C
:102FD0002091C5012F7020612093C50126E0289F14
:102FE000F001299FF00D1124EB56FE4F80818F7068
:102FF0008061808380EC91E00E94D816DF91CF91B0
:103000001F910C946F17260F371FDFCF0196877023
:10301000B4CFAF92BF92CF92DF92EF92FF920F9315
:103020001F93CF93DF93CDB7DEB761970FB6F894B8
:10303000DEBF0FBECDBF8C0185E0F801DE011D961D
:1030400001900D928A95E1F7D8014C9111965C910F
:1030500011971296EC903091C0016091C10180915E
:10306000C3019091C40121E0009731F06F3F19F442
:1030700021E03F3F09F020E0B22FB170BB2E20FDD0
:1030800080C1F801C380D480A090C201AA2009F4B5
:1030900027C1C816D906D0F1D601A81BB90BCD019E
:1030A000FF24F394883C910508F0F12C8091C50130
:1030B000982F907FFF2009F4CAC0911187C0FE2C81
:1030C000651329C0341327C0E11025C08F708061BB
:1030D0008093C5010E94901780EC91E00E94D81661
:1030E0008091C501F80185838F2D61960FB6F89404
:1030F000DEBF0FBECDBFDF91CF911F910F91FF902B
:10310000EF90DF90CF90BF90AF900895809590950D
:103110008C0D9D1DC5CF81E0CD2831F05F3F19F4A6
:1031200081E04F3F09F080E080FD24C081E08E25E2
:10313000F82FF170DF2E80FF3FC080918E0120912B
:103140008F0136E0821318C04D875E878D859E857E
:103150000E94C61C292F22952F70223008F124309E
:1031600030F59F7009F1D80115969C91907FE1F49C
:10317000FB2CBACF80E0DCCF90E0389FF001399F84
:10318000F00D1124E057FE4F6181561306C0608197
:10319000461303C062816E110FC001968770D2CFB3
:1031A0009F7011F0882321F3805E883008F3C801F6
:1031B0000E94D816BD2CDCCFEE2009F495CF80916B
:1031C000C50181608093C501F12C8ECF651312C0BB
:1031D000341310C0E1100EC0F8018583C8010E94AD
:1031E000D81686E0F801A0ECB1E001900D928A9526
:1031F000E1F741C04D875E878D859E850E9421172E
:10320000882309F4C8C0EE2009F4C5C08091C50127
:10321000803270F02091C0013091C10138872F8336
:103220001986DB86CA868C87CE0107960E94D8163F
:1032300086E0F801A0ECB1E001900D928A95E1F7EB
:103240000E949E170E949017FF24F3944DCF911176
:1032500015C07C2DD98AC88A6E2D89890E94501785
:1032600080EC91E00E94D81686E0E0ECF1E0DF010E
:103270001D928A95E9F70E94901736CF651312C008
:10328000341310C0E1100EC0F8018583C8010E94FC
:10329000D816E0ECF1E086E0DF011D928A95E9F7AF
:1032A000FA2C22CF4D875E878D859E850E9421173F
:1032B000882309F470C0EE2009F46DC08091C50127
:1032C000803208F4B5CF2091C0013091C1013A831A
:1032D00029831B82DD82CC828E83CE010196A6CF0C
:1032E000C816D90638F1F601E81BF90BCF01F12C0D
:1032F000883C910508F03DC0FE2CEE2009F44BC03F
:10330000651326C0341324C08091C50180FD17C009
:10331000982F907FA1F0D80115968C931597903F28
:1033200009F45CCF982F907F905F8F70892B159652
:103330008C9354CF809590958C0D9D1DD8CF86E0B1
:10334000F801A0ECB1E001900D928A95E1F7CCCEA6
:103350004D875E878D859E850E942117811168CFDC
:103360008091C50181608093C501C8010E94D81673
:10337000BBCE7C2DD98AC88A6E2D89890E945017B0
:1033800073CFEE2041F04D875E878D859E850E942C
:10339000211781114DCFC8010E94D81655CF1F9318
:1033A000CF93DF93CDB7DEB72C970FB6F894DEBF7F
:1033B0000FBECDBF4F83588769877A878B879C87DD
:1033C000CE0107960E940918882309F442C09F8104
:1033D00088852A853B85232B39F08F3F19F481E0BE
:1033E0009F3F19F080E001C081E080FD08C04F815F
:1033F000588569857A858B859C850E945F1716E0C4
:1034000080918E0190918F01891709F467C0819F87
:10341000C001112480579E4F0E940918882309F487
:103420005DC0E0918E011E9FF0011124E057FE4F18
:103430004081518162817381848195810E945F17EF
:1034400080918E0190E001968770992780938E017C
:10345000D7CF86E0FE013796DE01119601900D92DE
:103460008A95E1F79F8188852A853B85232B39F052
:103470008F3F19F481E09F3F19F080E001C081E0A7
:1034800080FDBDCF20918F0130E0C901019687708A
:10349000992740918E014817190699F096E0929F5E
:1034A000D001939FB00D1124A057BE4FFE0131965D
:1034B00001900D929A95E1F780938F010E946F170A
:1034C0009ECF0E941D1710928F0110928E0186E0F0
:1034D000E0ECF1E0DF011D928A95E9F72C960FB63A
:1034E000F894DEBF0FBECDBFDF91CF911F9108953D
:1034F000EF92FF920F931F93CF93DF938C01892B51
:1035000081F0F12CEE24E394E8012196F8018491F6
:10351000843770F4843008F05FC08130B1F08230BD
:10352000A1F1DF91CF911F910F91FF90EF9008953E
:10353000853709F44CC008F43DC09CE7980F9037DC
:1035400080F78F770E94381449C00E5F1F4FFE012D
:10355000849190E2980F983060F48770FE2D01C03E
:10356000FF0F8A95EAF78F2F0E94C51D0E94EC1D60
:1035700002C00E945C138F2D815030F2EFE9FFE012
:103580003197F1F700C00000F7CF0E5F1F4FFE012B
:10359000849190E2980F983050F48770FE2D01C00E
:1035A000FF0F8A95EAF78F2F0E94CB1DDFCF0E9475
:1035B0003814E1CF0E5F1F4FFE01C491C150D8F205
:1035C0008FE99FE00197F1F700C00000F7CF0E5F91
:1035D0001F4FFE01F490CFCF0E945C138E01CBCF22
:1035E00008956093FC017093FD018093FE01909318
:1035F000FF010C9409170F931F930091FC01109188
:10360000FD012091FE013091FF01DC01CB01802BF7
:10361000912BA22BB32B8093FC019093FD01A093DF
:10362000FE01B093FF011F910F910C9409170F93A6
:103630001F930091FC011091FD012091FE0130913A
:10364000FF01DC01CB0180239123A223B3238093CC
:10365000FC019093FD01A093FE01B093FF011F9127
:103660000F910C9409170F931F930091FC01109177
:10367000FD012091FE013091FF01DC01CB0180278B
:103680009127A227B3278093FC019093FD01A0937B
:10369000FE01B093FF011F910F910C940917109236
:1036A000F8011092F9011092FA011092FB010C94AA
:1036B000091741E050E060E070E004C0440F551F7E
:1036C000661F771F8A95D2F74093F8015093F9014E
:1036D0006093FA017093FB010C94091741E050E0EC
:1036E00060E070E004C0440F551F661F771F8A9585
:1036F000D2F78091F8019091F901A091FA01B0916F
:10370000FB01842B952BA62BB72B8093F80190936C
:10371000F901A093FA01B093FB010C94091741E061
:1037200050E060E070E004C0440F551F661F771F33
:103730008A95D2F740955095609570958091F801E3
:103740009091F901A091FA01B091FB018423952396
:10375000A623B7238093F8019093F901A093FA016F
:10376000B093FB010C94091741E050E060E070E079
:1037700004C0440F551F661F771F8A95D2F78091AA
:10378000F8019091F901A091FA01B091FB01842711
:103790009527A627B7278093F8019093F901A09366
:1037A000FA01B093FB010C9409170F931F9300913A
:1037B000F8011091F9012091FA013091FB01DC012F
:1037C000CB01802B912BA22BB32B8093F8019093EC
:1037D000F901A093FA01B093FB011F910F910C9492
:1037E00009170F931F930091F8011091F90120918F
:1037F000FA013091FB01DC01CB0180239123A2234C
:10380000B3238093F8019093F901A093FA01B09348
:10381000FB011F910F910C9409170F931F930091B7
:10382000F8011091F9012091FA013091FB01DC01BE
:10383000CB0180279127A227B3278093F80190938B
:10384000F901A093FA01B093FB011F910F910C9421
:10385000091708952FE0929F800D1124982F9770DB
:1038600071E001C0770F9A95EAF78695869586955F
:1038700025E0829FC001112450E040E0A62FB0E077
:10388000FC01E40FF51FEA53FE4F60819D01042EF9
:1038900002C0369527950A94E2F7217021952627D4
:1038A0002723262720834F5F5F4F4530510541F77F
:1038B00008952FE0929F800D1124982F9770869580
:1038C0008695869525E0829FA001112470E060E036
:1038D00080E0FA01E60FF71FEA53FE4F208130E047
:1038E000092E02C0369527950A94E2F721703327F6
:1038F000062E01C0220F0A94EAF7822B6F5F7F4FDA
:103900006530710531F70895BF92CF92DF92EF9243
:10391000FF920F931F93CF93DF938C01C090F80118
:10392000D090F901E090FA01F090FB018091FC0148
:103930009091FD01A091FE01B091FF01C82AD92A02
:10394000EA2AFB2ACFE1D0E0BC2ED701C6010C2E1B
:1039500004C0B695A795979587950A94D2F780FDF0
:103960000EC0219788F7B12C8B2DDF91CF911F913D
:103970000F91FF90EF90DF90CF90BF900895B80126
:103980008C2F0E944709019761F3EECFCF93DF930D
:10399000EC010E94841CBE01DF91CF910C94470979
:1039A0001F93CF93DF93EB0190918D01992331F019
:1039B000CB01DF91CF911F910C94C61C882379F025
:1039C000CB010E94841C182F682FCE010E942A1C54
:1039D000BE01812FDF91CF911F910C944709CB013C
:1039E0000E94591C182FF4CF80910002859585956F
:1039F00085950895809100028770089598E0899FC9
:103A000090011124622B609300020C946E1B909124
:103A100000028095892380930002282F277061F48B
:103A2000282F082E000C330B9217130629F08595CA
:103A3000859585950C948F1B089590910002977041
:103A400081E009F480E00895909113019923E1F059
:103A500090919A0297FF18C0E82FE695E695E695B3
:103A6000EF3139F12091010130910201E20FF32F82
:103A7000F11D877021E030E001C0220F8A95EAF73E
:103A80008181822B8183089520910101309102016F
:103A9000F90132969FEF40E05191851751F09F3F19
:103AA00019F4511101C0942F4F5F4E31A9F79F3F78
:103AB00009F40895290F311D97FD3A95F901828384
:103AC0000895909113019923F1F090919A0297FF34
:103AD0001AC0E82FE695E695E695EF3129F1209199
:103AE000010130910201E20FF32FF11D282F277001
:103AF00081E090E001C0880F2A95EAF780959181D6
:103B00008923818308952091010130910201F901F7
:103B10003296205E3F4F9191891303C0DF011197C8
:103B20001C92E217F307B9F7089581E090E0E09165
:103B30000101F0910201E80FF91F10820196803215
:103B40009105A9F7089590912402892B809324026E
:103B50000895982F909580912402892380932402C0
:103B6000089510922402089590912302892B809346
:103B700023020895982F90958091230289238093A2
:103B80002302089510922302089590912202892B16
:103B9000809322020895982F909580912202892384
:103BA00080932202089510922202089580930102C8
:103BB00008951092010208952091010130910201AF
:103BC000F9013196205E3F4F80E0919191118F5F16
:103BD000E217F307D1F70895E0910101F091020196
:103BE000809124028083E0910101F09102018081A3
:103BF00090912302892B8083E0910101F0910201D1
:103C0000808190912202892B8083909101029923D7
:103C100061F0E0910101F09102018081892B8083A4
:103C20000E94DC1D8111109201028091010190918E
:103C300002010C9429126DEE7EEF90E080E00E946C
:103C4000F82B60E082E090E00E94DA2B60E083E0F5
:103C500090E00E94DA2B60E084E090E00E94DA2B92
:103C600060E085E090E00E94DA2B60E086E090E082
:103C70000E94DA2B40E050E0BA0188E090E00C941A
:103C8000EC2B90E080E00E94D42B21E08D3E9E4FF3
:103C900009F020E0822F089582E090E00C94C62B7A
:103CA000682F82E090E00C94DA2B83E090E00C9493
:103CB000C62B682F83E090E00C94DA2B84E090E030
:103CC0000C94C62B682F84E090E00C94DA2B86E0ED
:103CD00090E00C94C62B682F86E090E00C94DA2BD1
:103CE0008091A102843051F11092260288E190E087
:103CF00020E40FB6F894A895809360000FBE20933F
:103D0000600080E00E94F30880E00E94280983B7E9
:103D1000817F846083BF83B7816083BF78948895F7
:103D200083B78E7F83BF0FB6F894A895809160000B
:103D3000886180936000109260000FBE089508951E
:103D40000895CF930E949F1E0E94190C0E94A01EEE
:103D5000C0E08C2F0E94E90C892B31F4CF5FC53075
:103D6000C1F780E0CF91089581E0FCCF0E941D173C
:103D70000E94E9220E941D120C9428091F920F92A2
:103D80000FB60F9211248F939F93AF93BF9380919F
:103D90002602811113C08091960290919702A09102
:103DA0009802B09199024196A11DB11D809396028F
:103DB00090939702A0939802B0939902BF91AF910C
:103DC0009F918F910F900FBE0F901F90189582E0DA
:103DD00084BD93E095BD9AEF97BD80936E000895E2
:103DE0002FB7F8948091960290919702A091980233
:103DF000B09199022FBF0895CF92DF92EF92FF9278
:103E00000F931F932FB7F894409196025091970209
:103E100060919802709199022FBF6A017B01EE2494
:103E2000FF248C0130E020E0C016D106E206F30644
:103E300050F0481B590BCA011F910F91FF90EF9052
:103E4000DF90CF90089541505109F3CF1F920F9208
:103E50000FB60F9211248F939F93AF93BF938091CE
:103E6000960290919702A0919802B09199020196C2
:103E7000A11DB11D8093960290939702A093980282
:103E8000B0939902BF91AF919F918F910F900FBE08
:103E90000F901F9018950E946C27F8942FEF87EAD7
:103EA00091E6215080409040E1F700C0000087E09B
:103EB00090EBDC018093AA029093AB02A093AC023A
:103EC000B093AD0288E19CE00FB6F894A89580937A
:103ED00060000FBE90936000FFCFAF92BF92CF9271
:103EE000DF92EF92FF920F931F93CF93C0E0CC2409
:103EF000C394D12CE82EF12C8C2F0E94E90C5C018C
:103F000010E000E0C601002E02C0880F991F0A943D
:103F1000E2F78A219B21892B99F40F5F1F4F0F3005
:103F2000110581F7CF5FC53039F780E0CF911F9140
:103F30000F91FF90EF90DF90CF90BF90AF900895DA
:103F4000602F7C2F80E00E942B09E816F90629F7E4
:103F500081E0ECCFCF93C82F8CE20E946D1F8823A5
:103F600021F08C2FCF910C946D1F80E0CF9108959C
:103F7000CF930E94411E811102C00E941B1EC5E604
:103F800008C00E94190C8FE39CE90197F1F700C06B
:103F90000000C150B1F789E20E94AA1F8111EFC051
:103FA0008AE20E94AA1F81110E941B1E85E00E94C6
:103FB000AA1F81110E944B1F0E944C1E8093250254
:103FC00087E00E94AA1F882371F08BE10E94AA1F3C
:103FD000882309F4B1C090912502892F8D7F91FF2C
:103FE000826080932502809125020E94501E0E94CB
:103FF0005E1E90E090939B0280939A0280EE0E9456
:10400000AA1F882341F090919A02892F8E7F90FFFA
:10401000816080939A0289E30E94AA1F882341F05D
:1040200090919A02892F8D7F91FF826080939A02EE
:1040300082EE0E94AA1F882341F090919A02892F54
:104040008B7F92FF846080939A0286EE0E94AA1F63
:10405000882341F090919A02892F877F93FF88608F
:1040600080939A0283EE0E94AA1F882341F09091C8
:104070009A02892F8F7E94FF806180939A0285E354
:104080000E94AA1F882341F090919A02892F8F7D68
:1040900095FF806280939A0281E30E94AA1F882381
:1040A00041F090919A02892F8F7B96FF80648093D4
:1040B0009A0281E10E94AA1F882341F090919A02FE
:1040C000892F97FB87F9805880939A0280919A02F2
:1040D0000E94621E87E20E94AA1FC82F8EE10E94E2
:1040E000AA1F8111C2608FE10E94AA1F8111C460C2
:1040F00080E20E94AA1F8111C86081E20E94AA1F6B
:104100008111C06182E20E94AA1F8111C06283E214
:104110000E94AA1F8111C06484E20E94AA1F882302
:1041200041F1C0688C2F0E94591E6C2F70E090E006
:1041300080E0CF910C94F11A8EE00E94AA1F882390
:1041400039F090912502892F8B7F92FF846049CFAF
:1041500080E10E94AA1F90912502882329F0892FCF
:10416000877F93FF88603DCF892F8E7F90FF81608E
:1041700038CFC111D7CF0E94551E682FD7CFCF910E
:1041800008958091290280FF12C06091060185E0A8
:10419000689FB0011124759567957595679560388E
:1041A0007105A8F561157105A1F1862F089581FFAC
:1041B00009C06091060185E0689FB00111247595E2
:1041C0006795EDCF82FF07C06091060185E0689F8B
:1041D000B0011124E4CF20912A022223A9F090916A
:1041E00005016091060185E0689FB001112429173F
:1041F000B0F6269FA001279F500D1124692F70E073
:10420000CA010E94AC2BCBCF65E070E0CECF8FE728
:10421000089581E008958091290280FF0CC060918B
:10422000040170E075956795759567956115710541
:1042300049F1862F089581FF06C06091040170E066
:1042400075956795F3CF6091040182FD0BC0909145
:104250002A029923A1F0609103018091040196172D
:1042600038F0682F70E06038710500F38FE708952B
:10427000899FC001112470E00E94AC2BF4CF61E053
:1042800070E0D7CF81E00895803F31F40E94C120D3
:10429000819580932D020895813F19F40E94C120D9
:1042A000F8CF823F31F40E94C120819580932C0287
:1042B0000895833F19F40E94C120F8CF893F29F463
:1042C0000E940B2180932E0208958A3F21F40E94C0
:1042D0000B218195F7CF8B3F31F40E940B21819503
:1042E00080932F0208958C3F19F40E940B21F8CF80
:1042F000843F31F480912B02816080932B020895DA
:10430000853F21F480912B028260F7CF863F21F414
:1043100080912B028460F1CF873F21F480912B02A2
:104320008860EBCF883F21F480912B028061E5CF3C
:104330008D3F31F480912902816080932902089594
:104340008E3F21F4809129028260F7CF8F3FB9F729
:10435000809129028460F1CF803FC1F480912D02C9
:1043600087FD10922D0280912C0281110EC0809148
:104370002D0281110AC080912E02811106C0809108
:104380002F02811102C010922A020895813F29F460
:1043900080912D0218162CF3E6CF90912C02823FCB
:1043A00029F497FFE0CF10922C02DDCF833F19F460
:1043B0001916CCF3D8CF893F39F480912E02181604
:1043C00094F610922E02CFCF8A3F29F480912E02CC
:1043D00087FFC9CFF6CF8B3F39F480912F0287FF3B
:1043E000C2CF10922F02BFCF8C3F29F480912F02B1
:1043F0001816BCF3B8CF843F31F480912B028E7F26
:1044000080932B02B0CF853F21F480912B028D7FCA
:10441000F7CF863F21F480912B028B7FF1CF873F2E
:1044200021F480912B02877FEBCF883F21F480918C
:104430002B028F7EE5CF8D3F31F4809129028E7F54
:104440008093290290CF8E3F21F4809129028D7FA5
:10445000F7CF8F3F09F087CF809129028B7FF0CF74
:104460008BE292E00E9434120E94F01E9093280288
:104470008093270208951F93CF93DF9380912702A3
:10448000909128020E94FC1EAC0190912A0220917A
:10449000070130E0911106C0209108018AE0289FB1
:1044A000900111244217530780F080912C02C09193
:1044B0002D0210912E02D0912F0281110AC0C1113C
:1044C00078C0111176C0D11174C0DF91CF911F91C6
:1044D00008959F3F19F09F5F90932A02181624F4C5
:1044E0000E94C12080932C0280912C0287FF05C07E
:1044F0000E94C120819580932C021C1624F40E94F6
:10450000C12080932D0280912D0287FF05C00E945B
:10451000C120819580932D0260912C02662331F198
:10452000C0912D02CC2311F1062E000C770B880BC5
:10453000990B0E949F2A23E333E343E35FE30E9446
:10454000032B0E94672A60932C026C2FCC0F770BF1
:10455000880B990B0E949F2A23E333E343E35FE335
:104560000E94032B0E94672A60932D02111624F4E7
:104570000E940B2180932E0280912E0287FF05C09E
:104580000E940B21819580932E021D1624F40E9417
:104590000B2180932F0280912F0287FF05C00E947C
:1045A0000B21819580932F02DF91CF911F910C9465
:1045B00030229F3F09F08FCFA0CF85E0EBE2F2E001
:1045C000DF011D928A95E9F710922A0210922902C2
:1045D00008950E94411E811102C00E941B1E0E946C
:1045E000671E80939C0280FF03C086950C94F3089D
:1045F00080E0FCCF80919C02982F9695953030F406
:104600009F5F990F8170892B80939C0280919C02FF
:10461000816080939C020E946B1E80919C02869513
:104620000C94F30880919C02982F9E7F79F0825021
:1046300080939C028E7F91E009F490E080919C022F
:1046400090FB80F980939C020E946B1E80919C02DB
:1046500086950C94F30890919C02892F8E7F90FF91
:10466000816080939C020E946B1E80919C0280FF5F
:1046700003C086950C94F30880E0FCCF90919C02D7
:10468000892F86958F5F8F7791708630B8F4880F69
:10469000892B80939C0280919C028E7F91E009F48B
:1046A00090E080919C0290FB80F980939C020E9494
:1046B0006B1E80919C0286950C94F30890939C024B
:1046C000EACF90919C02292F26958227880F91701E
:1046D000982B90939C029E7F21E009F420E080912A
:1046E0009C0220FB80F980939C020E946B1E8091AB
:1046F0009C0286950C94F308809150020895CF9304
:10470000DF9300D01F92CDB7DEB79C018091A1024C
:10471000843019F593E099833B832A839093E900D1
:104720008FEF9091E800815095FD06C095ED9A9528
:10473000F1F700008111F5CF8091E80085FF0DC0F1
:1047400050E040E063E070E0CE0101960E94DC257D
:104750008091E8008E778093E8000F900F900F9083
:10476000DF91CF910895CF93DF9300D01F92CDB703
:10477000DEB72091A102243031F522E02983805850
:1047800091099B838A8383E08093E9008FEF909166
:10479000E800815095FD06C095ED9A95F1F700006F
:1047A0008111F5CF8091E80085FF0DC050E040E019
:1047B00063E070E0CE0101960E94DC258091E80064
:1047C0008E778093E8000F900F900F90DF91CF913C
:1047D00008959C018091A1028430F9F482E08093D5
:1047E000E9009FEF8091E800915085FD06C085EDBE
:1047F0008A95F1F700009111F5CF8091E80085FFCF
:104800000CC050E040E065E070E0C9010E94DC258A
:104810008091E8008E778093E8000895CF93DF932E
:10482000EC018091A1028430F1F49091130199235D
:10483000E9F090919A0297FF19C08093E9008FEFF9
:104840009091E800815095FD06C095E19A95F1F7A9
:1048500000008111F5CF8091E80050E040E060E277
:1048600070E085FD1AC0DF91CF91089581E08093BB
:10487000E9008FEF9091E800815095FD06C095ED1D
:104880009A95F1F700008111F5CF8091E80085FF3E
:10489000EACF50E040E068E070E0CE010E94DC2505
:1048A0008091E8008E778093E80080E2FE01A0E32B
:1048B000B2E001900D928A95E1F7D5CF8091A002E8
:1048C000811109C00E946C270E94C9278091E200D3
:1048D00084608093E20008951092A00208950895E4
:1048E00008950C94B61E42E061EC81E00E94EA2635
:1048F00042E061EC82E00E94EA2642E061EC83E063
:104900000E94EA2642E261EC84E00C94EA2680915F
:10491000A302833009F455C030F4813071F1823044
:1049200009F491C008958A3009F47DC08B3009F4F0
:1049300063C0893009F044C08091A202813209F03D
:104940003FC08091A6029091A702009711F00397B3
:10495000B9F58091E800877F8093E8008091E800B6
:1049600082FF2AC08091F100809350028091E8007C
:104970008B778093E8000C941E278091A202813AE5
:10498000F9F48091E800877F8093E8008091A60287
:104990009091A702892B61F460E280E392E070E0DD
:1049A0000E942B268091E8008B778093E800089581
:1049B00060E090E080E0F3CF8091A1028111CECF42
:1049C00008958091A202813AD9F78091A602909130
:1049D000A702892BA9F78091E800877F8093E800E0
:1049E0008091E80080FFFCCF809113018093F1005B
:1049F0008091E8008E77BDCF8091A202813201F7CD
:104A00008091A6029091A702892BD1F68091E800AF
:104A1000877F8093E8000E941E278091A4028093E4
:104A200013010C941D178091A202813249F68091E6
:104A3000E800877F8093E8000E941E278091A502EE
:104A40008093510208958091A202813A09F0B8CF73
:104A50008091E800877F8093E8008091E80080FFE4
:104A6000FCCF80915102C2CF84B7877F84BF0FB63D
:104A7000F894A895809160008861809360001092FE
:104A800060000FBE80E880936100109261000E9478
:104A90006C120E946C270E94C9278091E2008460FA
:104AA0008093E20078940E944B2A0E946E1289E063
:104AB00091E00E9418128091A102853029F00E9495
:104AC00078120E94E511F7CF0E94701E80919F021C
:104AD000882389F30E94A11E882369F30E94C625BA
:104AE000EACF292F33272330310579F158F42130CB
:104AF0003105F1F02230310519F190E080E030E02D
:104B000020E01AC02132310599F122323105A9F78E
:104B1000643098F770E0FB01EE0FFF1FE45DFE4F7D
:104B200020813181685D7E4FFB01808190E004C06F
:104B300082E190E026EB3CE0FA0131832083089586
:104B40008DE690E029E43CE0F7CF9927813091058C
:104B500061F028F0029789F6E9E1FCE002C0E5E4A3
:104B6000FCE0849190E09F01E7CFEDE2FCE0F9CF1B
:104B7000643008F0C2CFE62FF0E0EE0FFF1FEC5CD0
:104B8000FE4F2081318189E090E0D6CF80E189BD60
:104B900082E189BD09B400FEFDCF8091D8008F7DF0
:104BA0008093D8008091E00082608093E000809143
:104BB000E00081FDFCCF0895AF92BF92CF92DF92CB
:104BC000FF920F931F93CF93DF936C01EB018A0148
:104BD0000E943D27F82E811123C00115110539F0DF
:104BE000F80180819181C81BD90BC80ED91EB12C48
:104BF000A12C2097A9F08091E80085FD22C080912A
:104C0000E8008E778093E80001151105A1F0F80106
:104C100080819181A80EB91EB182A08285E0F82E14
:104C20008F2DDF91CF911F910F91FF90DF90CF904B
:104C3000BF90AF9008950E943D278823D1F2F82EAF
:104C4000EFCFF60181916F018093F1002197FFEF83
:104C5000AF1ABF0ACECFFC018091A8029091A902A1
:104C600086179707A0F06115710529F49091E80067
:104C70009E779093E80090E06115710551F49111D1
:104C800008C08091E80082FF35C080E00895BC0133
:104C9000F2CF8091A1028823C9F18530C9F18091BA
:104CA000E80083FD31C08091E80082FDEACF809169
:104CB000E80080FFE1CF2091F3008091F200322FD5
:104CC000282F6115710519F02830310558F091E051
:104CD0002830310509F090E02091E8002E772093EC
:104CE000E800CACF81918093F100615071092F5F74
:104CF0003F4FE7CF8091A102882341F0853041F0FA
:104D00008091E80083FFBDCF81E0089582E008959F
:104D100083E00895FC018091A8029091A902861772
:104D20009707A0F06115710529F48091E8008E774E
:104D30008093E80090E06115710551F4911108C06D
:104D40008091E80082FF36C080E00895BC01F2CF78
:104D50008091A1028823D1F18530D1F18091E800C2
:104D600083FD32C08091E80082FDEACF8091E800A7
:104D700080FFE1CF2091F3008091F200322F282FA5
:104D80006115710519F02830310558F091E028308F
:104D9000310509F090E08091E8008E778093E8007B
:104DA000CACF84918093F1003196615071092F5FD1
:104DB0003F4FE6CF8091A102882341F0853041F03A
:104DC0008091E80083FFBCCF81E0089582E00895E0
:104DD00083E00895982F973028F08F708093E90032
:104DE00081E008959093E900242F762F50E09817E2
:104DF00031F07091EC002091ED005091F00021FD18
:104E000002C09F5FE8CF3091EB003E7F3093EB0014
:104E10003091ED003D7F3093ED003091EB0031603B
:104E20003093EB007093EC002093ED005093F00072
:104E30002091EE0027FDE5CF80E008958091A20249
:104E400087FF13C08091E80082FF06C08091E800D0
:104E50008B778093E80004C08091A1028111F2CF8A
:104E600008958091A1028823D9F38091E80080FF02
:104E7000F8CF8091E8008E77ECCF2091E40030915C
:104E8000E50085E69091EC0090FF06C09091E80067
:104E900090FF06C080E008959091E80092FDFACF5F
:104EA0009091A102992391F0953091F09091EB00AF
:104EB00095FD10C04091E4005091E500241735079E
:104EC00009F381509A01F1F684E0089582E0089593
:104ED00083E0089581E008950E94DA270E94E22786
:104EE000E0EEF0E0808181608083E8EDF0E0808199
:104EF0008F77808319BCA7EDB0E08C918E7F8C9367
:104F000080818F7E80831092A00208950F931F935B
:104F1000CF93DF930E94DA270E94E227C8EDD0E00A
:104F200088818F77888388818068888388818F7D56
:104F3000888319BC1092A10210929D0210929F02C8
:104F400010929E0200EE10E0F80180818B7F80833A
:104F500088818160888342E060E080E00E94EA26E8
:104F6000E1EEF0E080818E7F8083E2EEF0E08081F0
:104F700081608083808188608083F80180818E7F5A
:104F80008083888180618883DF91CF911F910F9109
:104F90000895E8EDF0E080818F7E8083E7EDF0E01A
:104FA00080818160808384E082BF81E08093A00261
:104FB0000C948627E8EDF0E080818E7F808310924C
:104FC000E20008951092DA001092E10008951F9215
:104FD0000F920FB60F9211242F933F934F935F932D
:104FE0006F937F938F939F93AF93BF93EF93FF93B1
:104FF0008091E10082FF0BC08091E20082FF07C038
:105000008091E1008B7F8093E1000E944A2A809189
:10501000DA0080FF19C08091D80080FF15C0809110
:10502000DA008E7F8093DA008091D90080FF94C0EF
:1050300080E189BD82E189BD09B400FEFDCF81E038
:105040008093A1020E945E248091E10080FF19C03C
:105050008091E20080FF15C08091E2008E7F8093F6
:10506000E2008091E20080618093E2008091D800AC
:1050700080628093D80019BC85E08093A1020E94D1
:1050800070248091E10084FF29C08091E20084FFB8
:1050900025C080E189BD82E189BD09B400FEFDCF54
:1050A0008091D8008F7D8093D8008091E1008F7E21
:1050B0008093E1008091E2008F7E8093E2008091F6
:1050C000E20081608093E20080919D02882309F4D0
:1050D00049C084E08093A1020E9471248091E10084
:1050E00083FF29C08091E20083FF25C08091E10009
:1050F000877F8093E10082E08093A10210929D025D
:105100008091E1008E7F8093E1008091E2008E7FAC
:105110008093E2008091E20080618093E20042E0AF
:1051200060E080E00E94EA268091F0008860809331
:10513000F0000E946F24FF91EF91BF91AF919F917A
:105140008F917F916F915F914F913F912F910F9030
:105150000FBE0F901F90189519BC1092A1020E94CB
:105160006C2472CF8091E30087FD02C081E0B2CF52
:1051700083E0B0CF1F920F920FB60F9211242F939E
:105180003F934F935F936F937F938F939F93AF93CF
:10519000BF93CF93EF93FF93C091E900CF708091BD
:1051A000EC001092E9008091F000877F8093F0007E
:1051B00078940E94F6281092E9008091F0008860AF
:1051C0008093F000C093E900FF91EF91CF91BF91E0
:1051D000AF919F918F917F916F915F914F913F918F
:1051E0002F910F900FBE0F901F9018951F93CF9384
:1051F000DF93CDB7DEB7AA970FB6F894DEBF0FBE28
:10520000CDBFE2EAF2E08091F100819322E0EA3A38
:10521000F207C9F70E9487248091E80083FF42C00B
:105220008091A2029091A3029A3008F03BC0E92F2E
:10523000F0E0E35EF64D0C94C02B27294B29522950
:105240004B295229A629C82952291D2A2A2A8038E1
:1052500079F0823839F58091A6028F708093E90049
:105260008091EB0085FB882780F91092E90006C049
:1052700080919E0290919F02911182609091E8002E
:10528000977F9093E8008093F1001092F100809155
:10529000E8008E772DC0282F2D7F21F48823D1F0B0
:1052A000823059F18091E80083FF0AC08091E800C4
:1052B000877F8093E8008091EB0080628093EB0011
:1052C000AA960FB6F894DEBF0FBECDBFDF91CF9187
:1052D0001F9108958091A402813021F7933009F045
:1052E00080E080939F021092E9008091E800877F20
:1052F0008093E8000E941E27D5CF8091A4028111DF
:10530000F2CF8091A6028F7069F28093E90020911C
:10531000EB0020FFE8CF933031F48091EB00806206
:105320008093EB00E0CF9091EB0090619093EB00C5
:1053300021E030E001C0220F8A95EAF72093EA00CD
:105340001092EA008091EB008860EACF8111AACF29
:105350001091A4021F778091E3008078812B8093C5
:10536000E3008091E800877F8093E8000E941E2779
:105370008091E80080FFFCCF8091E30080688093FB
:10538000E30083E0111101C082E08093A1028ACF83
:105390008058823008F086CF8091A4029091A502B7
:1053A0008C3D23E09207A1F583E08A838AE289831A
:1053B0004FB7F894DE01139620E03EE051E2E32F70
:1053C000F0E050935700E49120FF03C0E295EF70A6
:1053D0003F5FEF708E2F90E0EA30C0F0C7968D935C
:1053E0009D932F5F243159F74FBF8091E800877F4D
:1053F0008093E8006AE270E0CE0101960E942B26BD
:105400008091E8008B778093E8004CCFC096E7CF7F
:10541000AE014F5F5F4F6091A6020E947125BC01F3
:10542000892B09F43FCF9091E800977F9093E80093
:1054300089819A810E948A26E3CF803809F032CF91
:105440008091E800877F8093E80080919D0280939F
:10545000F1001DCF811126CF9091A402923008F067
:1054600021CF8091E800877F8093E80090939D0290
:105470000E941E2780919D02882331F084E0809352
:10548000A1020E9473240ECF8091E30087FDF6CF26
:1054900081E0F5CF0895CF938091A102882399F000
:1054A000C091E900CF708091EC0080FD0EC080E0DB
:1054B000C82B1092E9008091E80083FD0E94F62835
:1054C000CF70C093E900CF91089580E8F1CF0E949A
:1054D0006E2A6894B1110C94FD2A08950E94E22A64
:1054E00088F09F5798F0B92F9927B751B0F0E1F0A5
:1054F000660F771F881F991F1AF0BA95C9F714C055
:10550000B13091F00E94FC2AB1E008950C94FC2A7D
:10551000672F782F8827B85F39F0B93FCCF386958D
:1055200077956795B395D9F73EF4909580957095EA
:1055300061957F4F8F4F9F4F0895E89409C097FB67
:105540003EF490958095709561957F4F8F4F9F4F5A
:105550009923A9F0F92F96E9BB279395F69587959E
:1055600077956795B795F111F8CFFAF4BB0F11F461
:1055700060FF1BC06F5F7F4F8F4F9F4F16C0882308
:1055800011F096E911C0772321F09EE8872F762F3E
:1055900005C0662371F096E8862F70E060E02AF07F
:1055A0009A95660F771F881FDAF7880F969587956B
:1055B00097F9089557FD9058440F551F59F05F3FD4
:1055C00071F04795880F97FB991F61F09F3F79F025
:1055D00087950895121613061406551FF2CF4695A7
:1055E000F1DF08C0161617061806991FF1CF869529
:1055F0007105610508940895E894BB27662777270D
:10560000CB0197F908950E94162B0C94872B0E94CA
:10561000792B38F00E94802B20F0952311F00C9408
:10562000702B0C94762B11240C94FD2A0E94DA2AFC
:1056300070F3959FC1F3950F50E0551F629FF001E5
:10564000729FBB27F00DB11D639FAA27F00DB11DFE
:10565000AA1F649F6627B00DA11D661F829F222787
:10566000B00DA11D621F739FB00DA11D621F839F0E
:10567000A00D611D221F749F3327A00D611D231FE4
:10568000849F600D211D822F762F6A2F11249F5732
:1056900050409AF0F1F088234AF0EE0FFF1FBB1F35
:1056A000661F771F881F91505040A9F79E3F5105F4
:1056B00080F00C94702B0C94FD2A5F3FE4F3983E2D
:1056C000D4F3869577956795B795F795E7959F5F9E
:1056D000C1F7FE2B880F911D9695879597F9089530
:1056E00097F99F6780E870E060E008959FEF80EC95
:1056F000089500240A941616170618060906089538
:1057000000240A9412161306140605060895092E9D
:105710000394000C11F4882352F0BB0F40F4BF2B0C
:1057200011F460FF04C06F5F7F4F8F4F9F4F08954C
:10573000AA1BBB1B51E107C0AA1FBB1FA617B707B7
:1057400010F0A61BB70B881F991F5A95A9F78095D3
:105750009095BC01CD01089597FB072E16F4009497
:1057600007D077FD09D00E94982B07FC05D03EF4A6
:10577000909581959F4F0895709561957F4F0895FD
:10578000EE0FFF1F0590F491E02D0994F999FECFDB
:1057900092BD81BDF89A992780B50895A6E1B0E041
:1057A00044E050E00C94002CA8E1B0E042E050E06E
:1057B0000C94002C262FF999FECF92BD81BDF89A4A
:1057C000019700B4021639F01FBA20BD0FB6F89445
:1057D000FA9AF99A0FBE08950396272F0E94DB2BA1
:1057E0000E94DA2B252F0E94DB2B242F0C94DB2B1D
:1057F0000196272F0E94DB2B0C94DA2BDC01CB01C6
:10580000FC01F999FECF06C0F2BDE1BDF89A3196D0
:1058100000B40D9241505040B8F70895F894FFCF6E
:10582000FF02022808140A321E7C230E24E923B347
:10583000237F2301909192939594969734F7F6F5F0
:10584000F4F1F03031323337404D3639840D370DB5
:0C585000010DC80C5B0C740C8D0CA60C38
:00000001FF
